{"abi":[{"type":"constructor","inputs":[{"name":"acceptor","type":"address","internalType":"address"}],"stateMutability":"payable"},{"type":"fallback","stateMutability":"payable"},{"type":"receive","stateMutability":"payable"},{"type":"function","name":"acceptDepositAndTransferNft","inputs":[{"name":"requestId","type":"uint256","internalType":"uint256"},{"name":"price","type":"uint256","internalType":"uint256"}],"outputs":[],"stateMutability":"nonpayable"},{"type":"function","name":"borrowEth","inputs":[{"name":"_amount","type":"uint256","internalType":"uint256"}],"outputs":[{"name":"","type":"uint256","internalType":"uint256"}],"stateMutability":"nonpayable"},{"type":"function","name":"checkHealthFactor","inputs":[{"name":"user","type":"address","internalType":"address"}],"outputs":[{"name":"healthFactor","type":"uint256","internalType":"uint256"}],"stateMutability":"view"},{"type":"function","name":"checkInvestitionBalance","inputs":[{"name":"_investor","type":"address","internalType":"address"}],"outputs":[{"name":"depositWithRewards","type":"uint256","internalType":"uint256"}],"stateMutability":"view"},{"type":"function","name":"deposit","inputs":[],"outputs":[],"stateMutability":"payable"},{"type":"function","name":"detBalances","inputs":[],"outputs":[{"name":"","type":"tuple","internalType":"struct LendingNft.Collateral","components":[{"name":"deposit","type":"uint256","internalType":"uint256"},{"name":"borrow","type":"uint256","internalType":"uint256"}]}],"stateMutability":"view"},{"type":"function","name":"getActualBorrows","inputs":[],"outputs":[{"name":"","type":"uint256[]","internalType":"uint256[]"}],"stateMutability":"view"},{"type":"function","name":"getBorrow","inputs":[{"name":"borrowId","type":"uint256","internalType":"uint256"}],"outputs":[{"name":"","type":"tuple","internalType":"struct LendingNft.BorrowInstance","components":[{"name":"user","type":"address","internalType":"address"},{"name":"amount","type":"uint256","internalType":"uint256"},{"name":"loanStart","type":"uint256","internalType":"uint256"},{"name":"loanEnd","type":"uint256","internalType":"uint256"}]}],"stateMutability":"view"},{"type":"function","name":"getLastRequest","inputs":[],"outputs":[{"name":"","type":"tuple","internalType":"struct LendingNft.Request","components":[{"name":"user","type":"address","internalType":"address"},{"name":"nftContract","type":"address","internalType":"address"},{"name":"id","type":"uint256","internalType":"uint256"},{"name":"requestedPrice","type":"uint256","internalType":"uint256"},{"name":"floorPrice","type":"uint256","internalType":"uint256"},{"name":"status","type":"uint8","internalType":"enum LendingNft.RequestStatus"}]}],"stateMutability":"view"},{"type":"function","name":"getPriceOfDepositedNft","inputs":[{"name":"token","type":"address","internalType":"address"},{"name":"tokenId","type":"uint256","internalType":"uint256"}],"outputs":[{"name":"","type":"uint256","internalType":"uint256"}],"stateMutability":"view"},{"type":"function","name":"getRequest","inputs":[{"name":"requestId","type":"uint256","internalType":"uint256"}],"outputs":[{"name":"","type":"tuple","internalType":"struct LendingNft.Request","components":[{"name":"user","type":"address","internalType":"address"},{"name":"nftContract","type":"address","internalType":"address"},{"name":"id","type":"uint256","internalType":"uint256"},{"name":"requestedPrice","type":"uint256","internalType":"uint256"},{"name":"floorPrice","type":"uint256","internalType":"uint256"},{"name":"status","type":"uint8","internalType":"enum LendingNft.RequestStatus"}]}],"stateMutability":"view"},{"type":"function","name":"getRequests","inputs":[],"outputs":[{"name":"","type":"tuple[]","internalType":"struct LendingNft.Request[]","components":[{"name":"user","type":"address","internalType":"address"},{"name":"nftContract","type":"address","internalType":"address"},{"name":"id","type":"uint256","internalType":"uint256"},{"name":"requestedPrice","type":"uint256","internalType":"uint256"},{"name":"floorPrice","type":"uint256","internalType":"uint256"},{"name":"status","type":"uint8","internalType":"enum LendingNft.RequestStatus"}]}],"stateMutability":"view"},{"type":"function","name":"needToRepay","inputs":[{"name":"id","type":"uint256","internalType":"uint256"}],"outputs":[{"name":"","type":"uint256","internalType":"uint256"}],"stateMutability":"view"},{"type":"function","name":"onERC721Received","inputs":[{"name":"","type":"address","internalType":"address"},{"name":"from","type":"address","internalType":"address"},{"name":"tokenId","type":"uint256","internalType":"uint256"},{"name":"","type":"bytes","internalType":"bytes"}],"outputs":[{"name":"","type":"bytes4","internalType":"bytes4"}],"stateMutability":"nonpayable"},{"type":"function","name":"repayLoan","inputs":[{"name":"id","type":"uint256","internalType":"uint256"}],"outputs":[],"stateMutability":"payable"},{"type":"function","name":"requestDepositNft","inputs":[{"name":"tokenAddr","type":"address","internalType":"address"},{"name":"tokenId","type":"uint256","internalType":"uint256"},{"name":"_requestedPrice","type":"uint256","internalType":"uint256"},{"name":"_floorPrice","type":"uint256","internalType":"uint256"}],"outputs":[],"stateMutability":"nonpayable"},{"type":"function","name":"withdraw","inputs":[{"name":"_to","type":"address","internalType":"address payable"},{"name":"amount","type":"uint256","internalType":"uint256"}],"outputs":[],"stateMutability":"payable"},{"type":"function","name":"withdrawNft","inputs":[{"name":"token","type":"address","internalType":"address"},{"name":"tokenId","type":"uint256","internalType":"uint256"}],"outputs":[],"stateMutability":"nonpayable"},{"type":"event","name":"Accept","inputs":[{"name":"requestId","type":"uint256","indexed":true,"internalType":"uint256"},{"name":"price","type":"uint256","indexed":true,"internalType":"uint256"}],"anonymous":false},{"type":"event","name":"BorrowEth","inputs":[{"name":"user","type":"address","indexed":true,"internalType":"address"},{"name":"amount","type":"uint256","indexed":false,"internalType":"uint256"},{"name":"borrowId","type":"uint256","indexed":true,"internalType":"uint256"}],"anonymous":false},{"type":"event","name":"Liquidation","inputs":[{"name":"requestId","type":"uint256","indexed":true,"internalType":"uint256"},{"name":"liquidator","type":"address","indexed":true,"internalType":"address"},{"name":"collateralAmount","type":"uint256","indexed":false,"internalType":"uint256"},{"name":"liquidationTime","type":"uint256","indexed":false,"internalType":"uint256"}],"anonymous":false},{"type":"event","name":"ReceiveNft","inputs":[{"name":"from","type":"address","indexed":true,"internalType":"address"},{"name":"token","type":"address","indexed":true,"internalType":"address"},{"name":"tokenId","type":"uint256","indexed":true,"internalType":"uint256"}],"anonymous":false},{"type":"event","name":"RepayLoan","inputs":[{"name":"user","type":"address","indexed":true,"internalType":"address"},{"name":"borrowId","type":"uint256","indexed":true,"internalType":"uint256"},{"name":"totalRepay","type":"uint256","indexed":false,"internalType":"uint256"}],"anonymous":false},{"type":"event","name":"UserRequest","inputs":[{"name":"user","type":"address","indexed":true,"internalType":"address"},{"name":"token","type":"address","indexed":true,"internalType":"address"},{"name":"id","type":"uint256","indexed":true,"internalType":"uint256"},{"name":"requestedPrice","type":"uint256","indexed":false,"internalType":"uint256"},{"name":"floorPrice","type":"uint256","indexed":false,"internalType":"uint256"}],"anonymous":false},{"type":"event","name":"WithdrawNft","inputs":[{"name":"to","type":"address","indexed":true,"internalType":"address"},{"name":"token","type":"address","indexed":true,"internalType":"address"},{"name":"tokenId","type":"uint256","indexed":true,"internalType":"uint256"}],"anonymous":false},{"type":"event","name":"invested","inputs":[{"name":"_from","type":"address","indexed":true,"internalType":"address"},{"name":"amount","type":"uint256","indexed":true,"internalType":"uint256"},{"name":"_timestamp","type":"uint256","indexed":false,"internalType":"uint256"}],"anonymous":false},{"type":"event","name":"withdrew","inputs":[{"name":"_to","type":"address","indexed":true,"internalType":"address"},{"name":"amount","type":"uint256","indexed":true,"internalType":"uint256"},{"name":"_timestamp","type":"uint256","indexed":false,"internalType":"uint256"}],"anonymous":false},{"type":"error","name":"LendingNft_NotAnInvestor","inputs":[]},{"type":"error","name":"LendingNft__AlreadyRepay","inputs":[]},{"type":"error","name":"LendingNft__ErrorPrice","inputs":[]},{"type":"error","name":"LendingNft__IllHealthFactor","inputs":[]},{"type":"error","name":"LendingNft__NotABorrower","inputs":[]},{"type":"error","name":"LendingNft__NotAnAcceptor","inputs":[]},{"type":"error","name":"LendingNft__NotAnOwnerOfTokenId","inputs":[]},{"type":"error","name":"LendingNft__NotEnoughEth","inputs":[]},{"type":"error","name":"LendingNft__NotSuchNft","inputs":[{"name":"token","type":"address","internalType":"address"},{"name":"tokenId","type":"uint256","internalType":"uint256"}]}],"bytecode":{"object":"0x60806040526040516119e13803806119e183398101604081905261002291610055565b60008054336001600160a01b031991821617909155600180549091166001600160a01b0392909216919091179055610085565b60006020828403121561006757600080fd5b81516001600160a01b038116811461007e57600080fd5b9392505050565b61194d806100946000396000f3fe6080604052600436106101015760003560e01c8063981e97ee1161008f578063c58343ef11610061578063c58343ef14610349578063d0e30db014610369578063d8fc651914610371578063f3fef3a314610391578063f96fd590146103a457005b8063981e97ee146102985780639aa91a25146102b8578063ab7b1c89146102da578063b176e311146102ed57005b806356d9911a116100d357806356d9911a146101f4578063586d25cb14610214578063667efcb6146102345780638813ce12146102545780639637c8d91461027657005b806303bb36fe14610110578063085542731461016d578063150b7a021461019b57806345baa46f146101d457005b3661010e5761010e6103c4565b005b34801561011c57600080fd5b50604080518082018252600080825260209182018190523381526006825282902082518084018452815480825260019092015490830190815283519182525191810191909152015b60405180910390f35b34801561017957600080fd5b5061018d6101883660046115cc565b610468565b604051908152602001610164565b3480156101a757600080fd5b506101bb6101b63660046115fd565b610675565b6040516001600160e01b03199091168152602001610164565b3480156101e057600080fd5b5061018d6101ef3660046115cc565b6106da565b34801561020057600080fd5b5061018d61020f36600461169c565b6107b7565b34801561022057600080fd5b5061018d61022f3660046116c8565b6107ea565b34801561024057600080fd5b5061010e61024f3660046116ec565b610858565b34801561026057600080fd5b50610269610ab1565b60405161016491906117a3565b34801561028257600080fd5b5061028b610b82565b60405161016491906117f1565b3480156102a457600080fd5b5061018d6102b33660046116c8565b610be3565b3480156102c457600080fd5b506102cd610c6c565b6040516101649190611829565b61010e6102e83660046115cc565b610d54565b3480156102f957600080fd5b5061030d6103083660046115cc565b610eed565b604051610164919081516001600160a01b0316815260208083015190820152604080830151908201526060918201519181019190915260800190565b34801561035557600080fd5b506102cd6103643660046115cc565b610f84565b61010e6103c4565b34801561037d57600080fd5b5061010e61038c36600461169c565b611060565b61010e61039f36600461169c565b6111da565b3480156103b057600080fd5b5061010e6103bf366004611837565b61133c565b6000604051806040016040528060646003346103e0919061186f565b6103ea9190611886565b6103f490346118a8565b815242602091820181905233600081815260028452604080822086518155868601516001918201556003865291819020805460ff1916909217909155519182529293503492917f790ca9d20aa58348ad286c5ab28469881149083f9d1494f792d0cbabe326262b910160405180910390a350565b60008147101561048b5760405163bf9fd2f560e01b815260040160405180910390fd5b33600090815260066020526040812060010180548492906104ad9084906118bb565b90915550671bc16d674ec8000090506104c5336107ea565b10156104e45760405163e3da39b760e01b815260040160405180910390fd5b604080516080810182523381526020810184815242928201928352600060608301818152600780546001808201835582855295517fa66cc928b5edb82af9bd49922954155ab7b0942694bea4ce44661d9a8736c688600490920291820180546001600160a01b0319166001600160a01b0390921691909117905593517fa66cc928b5edb82af9bd49922954155ab7b0942694bea4ce44661d9a8736c68985015594517fa66cc928b5edb82af9bd49922954155ab7b0942694bea4ce44661d9a8736c68a840155517fa66cc928b5edb82af9bd49922954155ab7b0942694bea4ce44661d9a8736c68b9092019190915591546105df91906118a8565b336000818152600860209081526040808320805460018101825590845291909220018390555191925082917f725633d0b5d703e6d4825588d53bfeeb2959cd28d8112be5d38a3b27b4a85749906106399087815260200190565b60405180910390a3604051339084156108fc029085906000818181858888f1935050505015801561066e573d6000803e3d6000fd5b5092915050565b604051600090849033906001600160a01b038816907f99c63ca2e0684d0646ef672869400857cc4cabb4a34fccfee51f07db77ceab04908590a4507f150b7a023d4804d13e8c85fb27262cb750cf6ba9f9dd3bb30d90f482ceeb4b1f95945050505050565b60008062015180600784815481106106f4576106f46118ce565b9060005260206000209060040201600201544261071191906118a8565b61071b9190611886565b6107269060016118bb565b90506000670de0b6b3a76400006611c37937e080006007868154811061074e5761074e6118ce565b90600052602060002090600402016001015461076a919061186f565b6107749190611886565b9050610780818361186f565b60078581548110610793576107936118ce565b9060005260206000209060040201600101546107af91906118bb565b949350505050565b3360009081526004602090815260408083206001600160a01b038616845282528083208484529091529020545b92915050565b6001600160a01b038116600090815260066020526040812060010154810361081c575068056bc75e2d63100000919050565b6001600160a01b03821660009081526006602052604090206001810154905461084e90670de0b6b3a76400009061186f565b6107e49190611886565b6040516331a9108f60e11b81526004810184905233906001600160a01b03861690636352211e90602401602060405180830381865afa15801561089f573d6000803e3d6000fd5b505050506040513d601f19601f820116820180604052508101906108c391906118e4565b6001600160a01b0316146108ea576040516330c5657b60e01b815260040160405180910390fd5b6040805160c0810182523381526001600160a01b03868116602083019081529282018681526060830186815260808401868152600060a0860181815260058054600180820183559190935287517f036b6384b5eca791c62761152d0c79bb0604c104a5fb6f4eb0703f3154bb3db0600690940293840180549189166001600160a01b031992831617815599517f036b6384b5eca791c62761152d0c79bb0604c104a5fb6f4eb0703f3154bb3db1850180549190991691161790965593517f036b6384b5eca791c62761152d0c79bb0604c104a5fb6f4eb0703f3154bb3db282015591517f036b6384b5eca791c62761152d0c79bb0604c104a5fb6f4eb0703f3154bb3db3830155517f036b6384b5eca791c62761152d0c79bb0604c104a5fb6f4eb0703f3154bb3db482015590517f036b6384b5eca791c62761152d0c79bb0604c104a5fb6f4eb0703f3154bb3db590910180549394939192909160ff191690836003811115610a5c57610a5c611727565b02179055505060408051848152602081018490528592506001600160a01b0387169133917f55bbab53673c4c6385f4226954245585c6c3649bb79cbb1712342447a4e9ecd8910160405180910390a450505050565b60606005805480602002602001604051908101604052809291908181526020016000905b82821015610b795760008481526020908190206040805160c0810182526006860290920180546001600160a01b03908116845260018201541693830193909352600283015490820152600380830154606083015260048301546080830152600583015491929160a084019160ff90911690811115610b5557610b55611727565b6003811115610b6657610b66611727565b8152505081526020019060010190610ad5565b50505050905090565b33600090815260086020908152604091829020805483518184028101840190945280845260609392830182828015610bd957602002820191906000526020600020905b815481526020019060010190808311610bc5575b5050505050905090565b6001600160a01b03811660009081526003602052604081205460ff16610c505760405162461bcd60e51b815260206004820152601860248201527f596f7520617265206e6f7420616e20696e766573746f7221000000000000000060448201526064015b60405180910390fd5b506001600160a01b031660009081526002602052604090205490565b610ca26040805160c08101825260008082526020820181905291810182905260608101829052608081018290529060a082015290565b60058054610cb2906001906118a8565b81548110610cc257610cc26118ce565b60009182526020918290206040805160c081018252600690930290910180546001600160a01b03908116845260018201541693830193909352600283015490820152600380830154606083015260048301546080830152600583015491929160a084019160ff90911690811115610d3b57610d3b611727565b6003811115610d4c57610d4c611727565b905250919050565b336001600160a01b031660078281548110610d7157610d716118ce565b60009182526020909120600490910201546001600160a01b031614610da95760405163110e059160e11b815260040160405180910390fd5b60078181548110610dbc57610dbc6118ce565b906000526020600020906004020160030154600014610dee5760405163f5500ff160e01b815260040160405180910390fd5b6000610df9826106da565b905034811115610e1c5760405163bf9fd2f560e01b815260040160405180910390fd5b60078281548110610e2f57610e2f6118ce565b90600052602060002090600402016001015460066000336001600160a01b03166001600160a01b031681526020019081526020016000206001016000828254610e7891906118a8565b925050819055504260078381548110610e9357610e936118ce565b906000526020600020906004020160030181905550610eb182611509565b604051818152829033907f9b96924e72c50ebf238582c2b9cf4cbf08f5c9ea7b30ea0e23ed9b26604f0d34906020015b60405180910390a35050565b610f21604051806080016040528060006001600160a01b031681526020016000815260200160008152602001600081525090565b60078281548110610f3457610f346118ce565b600091825260209182902060408051608081018252600490930290910180546001600160a01b03168352600181015493830193909352600283015490820152600390910154606082015292915050565b610fba6040805160c08101825260008082526020820181905291810182905260608101829052608081018290529060a082015290565b60058281548110610fcd57610fcd6118ce565b60009182526020918290206040805160c081018252600690930290910180546001600160a01b03908116845260018201541693830193909352600283015490820152600380830154606083015260048301546080830152600583015491929160a084019160ff9091169081111561104657611046611727565b600381111561105757611057611727565b90525092915050565b3360009081526004602090815260408083206001600160a01b03861684528252808320848452909152812054908190036110bf5760405163d2e930fd60e01b81526001600160a01b038416600482015260248101839052604401610c47565b33600090815260066020526040812080548392906110de9084906118a8565b90915550671bc16d674ec8000090506110f6336107ea565b10156111155760405163e3da39b760e01b815260040160405180910390fd5b3360008181526004602090815260408083206001600160a01b03881680855290835281842087855290925280832083905551859391927f2fef073f7f0aec5a107daf6ef91796c4564755c1c83478374ef3071856f7365691a46040516323b872dd60e01b8152306004820152336024820152604481018390526001600160a01b038416906323b872dd906064015b600060405180830381600087803b1580156111bd57600080fd5b505af11580156111d1573d6000803e3d6000fd5b50505050505050565b6001600160a01b03821660009081526003602052604090205460ff1661121357604051631630d3c360e01b815260040160405180910390fd5b6001600160a01b03821660009081526002602052604090205481111561124c5760405163b4ca061b60e01b815260040160405180910390fd5b6040516001600160a01b0383169082156108fc029083906000818181858888f19350505050158015611282573d6000803e3d6000fd5b506001600160a01b03821660009081526002602052604081205490036112da576001600160a01b038216600090815260026020908152604080832083815560010183905560039091529020805460ff19169055611308565b6001600160a01b038216600090815260026020526040812080548392906113029084906118a8565b90915550505b604051428152819033907f8bb2c75524d6c82dc6b277e37374c67c147a3f8442adcf257b0a7da6f17f934990602001610ee1565b6001546001600160a01b0316331461136757604051631311293f60e21b815260040160405180910390fd5b60006005838154811061137c5761137c6118ce565b60009182526020918290206040805160c081018252600690930290910180546001600160a01b03908116845260018201541693830193909352600283015490820152600380830154606083015260048301546080830152600583015491929160a084019160ff909116908111156113f5576113f5611727565b600381111561140657611406611727565b81525050905080608001518210156114315760405163b4ca061b60e01b815260040160405180910390fd5b600160a082015280516001600160a01b0390811660009081526004602090815260408083208286015185168452825280832081860151845282528083208690558451909316825260069052908120805484929061148f9084906118bb565b9091555050604051829084907f66b40296db692bd2f393bda18cf3f9d917966186767279128a62afeb90e43b3990600090a3602081015181516040808401519051632142170760e11b81526001600160a01b03928316600482015230602482015260448101919091529116906342842e0e906064016111a3565b33600090815260086020526040812080549091905b808210156115c65783838381548110611539576115396118ce565b9060005260206000200154036115bb57826115556001836118a8565b81548110611565576115656118ce565b9060005260206000200154838381548110611582576115826118ce565b9060005260206000200181905550828054806115a0576115a0611901565b600190038181906000526020600020016000905590556115c6565b81600101915061151e565b50505050565b6000602082840312156115de57600080fd5b5035919050565b6001600160a01b03811681146115fa57600080fd5b50565b60008060008060006080868803121561161557600080fd5b8535611620816115e5565b94506020860135611630816115e5565b935060408601359250606086013567ffffffffffffffff8082111561165457600080fd5b818801915088601f83011261166857600080fd5b81358181111561167757600080fd5b89602082850101111561168957600080fd5b9699959850939650602001949392505050565b600080604083850312156116af57600080fd5b82356116ba816115e5565b946020939093013593505050565b6000602082840312156116da57600080fd5b81356116e5816115e5565b9392505050565b6000806000806080858703121561170257600080fd5b843561170d816115e5565b966020860135965060408601359560600135945092505050565b634e487b7160e01b600052602160045260246000fd5b60018060a01b038082511683528060208301511660208401525060408101516040830152606081015160608301526080810151608083015260a08101516004811061179857634e487b7160e01b600052602160045260246000fd5b8060a0840152505050565b6020808252825182820181905260009190848201906040850190845b818110156117e5576117d283855161173d565b9284019260c092909201916001016117bf565b50909695505050505050565b6020808252825182820181905260009190848201906040850190845b818110156117e55783518352928401929184019160010161180d565b60c081016107e4828461173d565b6000806040838503121561184a57600080fd5b50508035926020909101359150565b634e487b7160e01b600052601160045260246000fd5b80820281158282048414176107e4576107e4611859565b6000826118a357634e487b7160e01b600052601260045260246000fd5b500490565b818103818111156107e4576107e4611859565b808201808211156107e4576107e4611859565b634e487b7160e01b600052603260045260246000fd5b6000602082840312156118f657600080fd5b81516116e5816115e5565b634e487b7160e01b600052603160045260246000fdfea264697066735822122050d557692255d36e3e601c9020656bdf9df1e6669d0a74ee402623239956d48064736f6c63430008180033","linkReferences":{}},"methodIdentifiers":{"acceptDepositAndTransferNft(uint256,uint256)":"f96fd590","borrowEth(uint256)":"08554273","checkHealthFactor(address)":"586d25cb","checkInvestitionBalance(address)":"981e97ee","deposit()":"d0e30db0","detBalances()":"03bb36fe","getActualBorrows()":"9637c8d9","getBorrow(uint256)":"b176e311","getLastRequest()":"9aa91a25","getPriceOfDepositedNft(address,uint256)":"56d9911a","getRequest(uint256)":"c58343ef","getRequests()":"8813ce12","needToRepay(uint256)":"45baa46f","onERC721Received(address,address,uint256,bytes)":"150b7a02","repayLoan(uint256)":"ab7b1c89","requestDepositNft(address,uint256,uint256,uint256)":"667efcb6","withdraw(address,uint256)":"f3fef3a3","withdrawNft(address,uint256)":"d8fc6519"},"id":0}